:0200000270008C
:108000000000012045830700A1830700A383070028
:10801000A5830700A7830700A983070000000000CD
:10802000000000000000000000000000AB8307001B
:10803000AD83070000000000AF830700B183070095
:10804000B3830700B383070015970700B3830700C6
:10805000B3830700B3830700B3830700B38307002C
:10806000B3830700B3830700B3830700B38307001C
:10807000B3830700B3830700B3830700B38307000C
:10808000F1B60700B3830700B3830700B38307008B
:10809000B3830700B3830700B3830700B3830700EC
:1080A000B3830700B3830700B3830700B3830700DC
:1080B000B3830700B3830700000000000000000046
:1080C000B3830700B3830700B3830700B3830700BC
:1080D000B9B30700B3830700B3830700B383070076
:1080E000B383070000000000000000000000000053
:1080F00000000000B383070000000000B383070006
:10810000000000000000000000000000000000006F
:10811000000000000000000000000000000000005F
:10812000000000000000000000000000000000004F
:10813000000000000000000000000000000000003F
:10814000000000000000000000000000000000002F
:10815000000000000000000000000000000000001F
:10816000000000000000000000000000000000000F
:1081700000000000000000000000000000000000FF
:1081800000000000000000000000000000000000EF
:1081900000000000000000000000000000000000DF
:1081A00000000000000000000000000000000000CF
:1081B00000000000000000000000000000000000BF
:1081C00000000000000000000000000000000000AF
:1081D000000000000000000000000000000000009F
:1081E000000000000000000000000000000000008F
:1081F000000000000000000000000000000000007F
:10820000314932480A1A02D0072291438D4630493B
:1082100030480A1A06D00722914381F309880222C6
:1082200082F314882C482D492D4A00F03CF82D4843
:108230002D492E4A00F037F82D482E492E4A00F0DD
:1082400032F82E482E492F4A00F02DF82E482F499B
:108250002F4A00F028F82F482F49304A00F023F821
:108260002F483049304A00F01EF83048304900228B
:1082700000F024F82F483049002200F01FF82F4A60
:1082800090471F481F49884205D00268043003B454
:10829000904703BCF7E700208646EC46002000210B
:1082A000274A9047FEE7884207D0521A05D0037844
:1082B00001300B700131013AF9D17047884202D088
:1082C00002700130FAE770470000012000F800203A
:1082D0000000012000000120C4D307002026002058
:1082E00060260020B8830700B883070048CF070046
:1082F000C4D30700202600202026002078CF0700C6
:1083000078CF070078CF070078CF070078CF070035
:1083100078CF070078CF070078CF0700C4D30700D5
:1083200004D407006026002060260020602600207C
:108330008C3B00208C3B00208C3B00206D83070091
:10834000C59F070000F036B80F484FF0070188437B
:1083500085460E4880470E48016841F4700101606F
:10836000BFF34F8FBFF36F8FFFF74ABF09480A492A
:108370000A4A884207D0521A05D0037801300B70A0
:108380000131013AF9D170470000012091B707008F
:1083900088ED00E064CF07000C2600202026002096
:1083A000FEE7FEE7FEE7FEE7FEE7FEE7FEE7FEE7A5
:0883B000FEE7FEE7FFF7C8BF7E
:1083B800074B1B5C1F2B86BF064903F01F034FF0BA
:1083C800A041012202FA03F3C1F80C35704700BF3F
:1083D80078CF070000030050074B1B5C1F2B86BF9C
:1083E800064903F01F034FF0A041012202FA03F3EC
:1083F800C1F80835704700BF78CF07000003005068
:1084080008B50020FFF7E8FF0120FFF7E5FFBDE80A
:1084180008400220FFF7E0BFC20710B504460AD59E
:108428004FF0A0420323C2F81037C2F81437C2F83D
:10843800243AFFF7E5FFA3070AD54FF0A0430C2223
:10844800C3F82C27C3F83027C3F86027C3F864277C
:1084580010BD43689B68184708B5436808305A79C7
:1084680001F05FFD002008BD2DE9F0410C469CB0ED
:1084780008461F460392FFF7ECFFD4F804800399DF
:1084880098F80550BD4228BF3D4606462A4604A82E
:1084980001F03CFD98F8052022990CA801F041FD57
:1084A80000960CAB2A4604A904F1080002F00CFC63
:1084B800002848F2425018BF00201CB0BDE8F081E7
:1084C8000023C0E902328B881A44B1F906300261F0
:1084D8001A44C0E9001142610888003818BF012019
:1084E80070474268118870B50346002937D0148A4E
:1084F80002F1100141602CB9C2680168FFF7E0FF82
:10850800204670BD907811891C6900F03006302E25
:1085180013D1957C05F03005302D1AD19188611A58
:1085280019610021908AB2F916200844196901449A
:108538001961114459610120E3E700F0F004202C8F
:1085480007D150894143002EECD1986801309860DA
:10855800E8E700F0C000802808BF0421F3E70846D8
:10856800CFE770B5466804460D4663681A88AA4284
:1085780004D19B7803F00F03082B07D12046FFF79F
:10858800B0FF6368B342F0D1002070BD0120FCE762
:1085980043681A44426011B101399A4201D101205D
:1085A800704713F8010B01F8010FF6E770B545683D
:1085B800AA7802F00F06082E86B003461FD1036979
:1085C8001C6800260CB906B070BD236862689D68F7
:1085D800267329466846FFF773FF6368049304F11E
:1085E8000C030593AB7803F0C003802B08BF231D51
:1085F800684608BF0493FFF7D9FFA468E2E712F0C2
:10860800C00122D102F0300010280CD15A69117033
:10861800072EEC6818690BD10146204606B0BDE864
:10862800704000F01AB89006F2D55B691980CAE765
:108638002A89214624B106B0BDE8704004F0F6BB93
:1086480006B0BDE8704004F027BC8029BBD10069A2
:10865800002192060160B6D5E7E77FB50A460146D4
:108668006846FFF72DFF30B16846FFF79FFF684661
:10867800FFF737FFF7E707B05DF804FB836810B52D
:1086880004460BB9002010BD036801229847002852
:10869800F8D0A368013BA360F5E72DE9F3410F4645
:1086A8000DF107018046FFF7E9FF054620B90025CF
:1086B800284602B0BDE8F0819DF907309DF80740D3
:1086C800002B13DA04F07F0407260DF1070140465A
:1086D800FFF7D4FF0028EAD09DF8072002F07F03B7
:1086E800B3401C43130606F1070601D43C60DFE7DC
:1086F800232EEAD1DBE7000030B5044685B01546E5
:10870800A9B90268114B9A4211D0102D06D82A46F1
:1087180069462046FFF7F0FF05B030BD10226946D4
:108728002046FFF7E9FF0028F6D0103DEDE7A368E3
:10873800AB4201D20020EFE723682A46204698473B
:108748000028F7D0A3685B1BA360E5E799850700BD
:108758002DE9F3410F4601A980461646FFF79DFF14
:10876800A0B1019C621C4FF0000504D2BB7803F055
:10877800C003802B01D1284608E03B899342FAD3F5
:10878800224631464046FFF7B7FF355502B0BDE8EF
:10879800F08173B50D4601A906461446FFF77DFF23
:1087A800B0B1019AB2F5803F12D2AB7803F0C003A2
:1087B800802B02F102010BD02B898B4208D3214672
:1087C800304621F8022B02B0BDE87040FFF794BF95
:1087D800002002B070BD000010B5034C826000227A
:1087E800C0E90041C26010BD998507002DE9F34139
:1087F800002580460E462F462C460DF107014046BF
:10880800FFF73CFFC0B19DF807C0A4F120030CF0AE
:108818007F02C4F1200102FA03F322FA01F10B43AB
:10882800A2401CF0800F45EA020547EA030704F15D
:10883800070404D1C6E9005702B0BDE8F081462C10
:10884800DBD10020F8E737B50D4669461446FFF737
:10885800CDFF70B12B89082B0DD1DDE90032C4E9B9
:108868000032DDE90001914208BF98420CBF0120A7
:10887800002003B030BD042B03D1009B23600022ED
:10888800EFE7022B03D1009B23809BB2F7E7012B74
:1088980004D1009B237003F0FF03F0E70020E8E712
:1088A80037B50D4669461446FFF7A0FF30B12B894E
:1088B800082BDDE9001203D1C4E9001203B030BD72
:1088C800042B4FEAE17009D121600B46024682422F
:1088D80008BF8B420CBF01200020EFE7022B03D119
:1088E8000BB22380DA17F2E7012B02D14BB22370C7
:1088F800F8E70020E2E7F7B51F4600233B700D4676
:108908000B70136001A904461646FFF7C6FE30B97E
:10891800A36813B901233B70002003B0F0BD019C8C
:10892800002CF7D0E30804F0070433602C70F4E758
:1089380013B50446052921D8DFE801F0030F1720F5
:10894800201E012201A92046FFF7D6FE18B19DF985
:108958000430002BF5DB02B010BD082200212046B0
:1089680002B0BDE81040FFF7C7BE01A9FFF795FEAA
:108978000028F0D0019AF1E70422EFE70020EAE7A7
:1089880073B50D4601A90446FFF787FE064618B9D8
:108998000026304602B070BD94E80F0085E80F004D
:1089A80001998A42F4D3A960A3685B1AA360F0E72F
:1089B8002DE9F0435668B37813F0C00489B0074630
:1089C8008C46154603D0402C69D000240CE003F0F7
:1089D8000F02604903F03003202B51F8228025D084
:1089E80006D8E3B1102B17D0204609B0BDE8F083B4
:1089F800302BF9D16B6931881980072A09D12146B2
:108A08003289286904F048FA6B682969D868FFF741
:108A180024FE2A69696840E06B6901221A702A6994
:108A28003146434609B0BDE8F0431847BCF1020F90
:108A3800D5F8149024D1042A22D804A9FFF7A0FF5E
:108A480004460028C1D0069B2BB16968B9F80030EC
:108A58004A899A4205D8059B7B60069B002BC3D0A8
:108A6800B3E708892A6903FB002204A8C04728B194
:108A7800B9F800300133A9F80030E4E70446EAE722
:108A8800B9F8003072899A429FD931892A69581CED
:108A980003FB0122A9F8000031463846C1E7D2F8A5
:108AA8001080464656F8043B23B909B0BDE8F043A8
:108AB800FFF73EBF022914D104A9FFF761FF002880
:108AC80083D0D8F800306968324604A8984704462D
:108AD80000283FF47AAF069B002BF2D1059B7B6000
:108AE80082E7012926D005292CD000297FF46DAF13
:108AF8000C460DF1040901340B2C3FF466AF01223A
:108B080049463846FFF7F8FD00283FF45EAF19F9EB
:108B1800013B002BEFDB104B049301ABCDE905348F
:108B2800002307936968D8F80030324604A89847AC
:108B3800044659E7082201A9FFF7DEFD08240028AA
:108B4800E9D142E704220DEB0201FFF7D5FD042429
:108B5800F5E700BF88CF0700998507002DE9F04F9A
:108B680091B00446002604A8CDE90266FFF7A8FCE8
:108B7800A3683BBBDDE9053404A89D78FFF7B1FC89
:108B88000028F7D115F0300F03D1059B1B8803B1DE
:108B98000134002C00F0AD80630902A90022934241
:108BA80040F0A08010AA02EB830304F01F0453F8DE
:108BB800383CC4F120044FF0FF30E040C31A58425B
:108BC80058410DE00DF1030301AA0DF10201204601
:108BD800FFF791FE38B99DF80330002BCAD1002069
:108BE80011B0BDE8F08F019F04A83946FFF7B9FC22
:108BF800002850D1B742C0F08180059D059A93782E
:108C080003F00F03082B00F0828004A8FFF769FC2B
:108C1800059B9D42F2D14FF0FF36B7429DF802A066
:108C28006CD3089BD4F808801D684FF00109A3682D
:108C3800002D60D098459BD12B68D3F800B0BBF1CC
:108C4800000F08D053463A4629462046D847002800
:108C5800C5D0AD68EBE7D3F808B0BBF800309F4249
:108C6800F7D16A6859460AA8FFF72AFC6B680E9381
:108C780005F10C030F939BF8023003F0C003802B1F
:108C880004BF2B1D0E930AAA85F80C905146204666
:108C9800FFF78EFEDBE7059B9B7813F0300F0FD1B3
:108CA800069A3F2A0CD8510910AB03EB810102F058
:108CB8001F020123934051F8382C134341F8383CE4
:108CC800D4F80C809DF80250B8F1000F04D004AB22
:108CD8002A4639462046C04704AA29462046FFF7B7
:108CE80067FE10E051F8045B01357FF479AF01327B
:108CF80055E7012074E798457FF43AAF9DF80210D4
:108D08002046FFF715FE00287FF432AF67E7168884
:108D180083E737B50C460546114620460192FFF712
:108D28009CFC019A2146284603B0BDE83040FFF775
:108D380015BF70B586B0CE6801920C4602A90546EB
:108D4800FFF71EFE68B1E06858B1A378019A03F0F6
:108D58003003202B314602A805D1FFF7DAFF039B29
:108D68006B6006B070BDFFF7F9FEF8E713B50C4667
:108D78006946FFF73BFD60B1DDE900134A0842EAA6
:108D8800C372C9074FEA530344BFD243DB43C4E964
:108D9800002302B010BD37B50D4669461446FFF7EB
:108DA800E5FF70B12B89082B0DD1DDE90032C4E94C
:108DB8000032DDE90001914208BF98420CBF012052
:108DC800002003B030BD042B03D1009B2360DA17C9
:108DD800EFE7022B03D1BDF900302380F7E7012B21
:108DE80003D19DF900302370F1E70020E9E713B5BE
:108DF80004220C460DEB0201FFF77EFC08B1019B33
:108E0800236002B010BD1146FFF7F1BF13B5082269
:108E18000C466946FFF770FC18B1DDE90023C4E988
:108E2800002302B010BD1146FFF7F0BF4B1C30B550
:108E3800DB00044612F003009BB20DD1074D2A60F7
:108E48001A44074B1A60074B1870074B1870074BEA
:108E58001C80074B198030BD0720FCE768260020DE
:108E68006426002060260020702600206C26002042
:108E78006E2600202DE9F843DFF8AC80B8F8003002
:108E88008B4206460D46174640D3002000F08EF868
:108E9800204B214A2148197800881478E3B284428B
:108EA80038BF0133C9B234BFDBB20023994226D0A0
:108EB80014781178CBB2884286BF0133DBB2002325
:108EC8001370002000F074F84FF6FF739C421FD017
:108ED800134B1B6843F8347003EBC40996B18DB18A
:108EE800104BB8F800001B682A46314604FB0030D6
:108EF80003F09CFFA9F804500020BDE8F8834FF662
:108F0800FF74DEE70020A9F80400F6E70920F4E77B
:108F18000420F2E770260020602600206E2600203C
:108F280068260020642600206C26002070B5104CAE
:108F3800104D22782B789A4200D170BD0E480F4A06
:108F48002378126806880E4802EBC301006852F8BD
:108F58003320898803FB060090470A49227809884C
:108F6800D3B2914286BF0133DBB200232370E0E71E
:108F780070260020602600206C260020682600202D
:108F8800642600206E26002072B6024A1368013358
:108F98001360704774260020034A1368013B13606E
:108FA80003B962B6704700BF74260020FFF7ECBF14
:108FB800FFF7F2BF30B53AB11368DB430A4D0144FD
:108FC800814204D1D84330BD4FF0FF33F6E710F8A3
:108FD800012B5340082213F0010418BF2C46013A14
:108FE80084EA5303F7D1EBE72083B8ED10B50346C5
:108FF80053E8000F40EA010243E8002494F0000F10
:10900800F6D110BD10B5034653E8002F02EA01005F
:1090180043E8000494F0000FF6D110BD0121FFF7DA
:10902800E5BF0021FFF7EEBF10B590B1D0E90123ED
:1090380001689B1ADBB20A60013BDBB2FF2B0268B6
:1090480002D10020107110BD11684C1C14600B7007
:10905800F2E70E20F7E738B504460020FFF7A6FF31
:109068002268616813688B4213D9591E116013F87E
:10907800013C208AE56800FB0355A3685B1A117957
:10908800DBB2994200D213710020FFF791FF284606
:1090980038BD0025F8E738B5054600200C46FFF72F
:1090A80085FF2A681368591C1160EA68A41A2A8A7D
:1090B800B4FBF2F41C70BDE838400020FFF778BF1D
:1090C8000B6801601146184710B40468E468A446A8
:1090D8005DF8044B604710B404682469A4465DF841
:1090E800044B604770B550B90E4D0F4C0026641BF9
:1090F8001423B4FBF3F4B44208D1002010E0036851
:10910800002BF1D0BDE87040DB6918472B6813B914
:1091180001361435EFE7DB69284698470028F7D071
:1091280070BD00BF0C26002020260020014B4360A4
:1091380000207047ACCF07000846704700207047F2
:10914800024B1868003818BF0120704778260020A5
:1091580008B50248FFF765FF002008BD7826002003
:1091680008B510461A4603F061FE002008BD00004D
:109178002DE9F041804686B011480F4616461D4637
:10918800FFF74CFF0446C8B9AA083146384600F034
:109198009DFA0B48FFF745FFD8F8083053B1012274
:1091A8008DF800200C9A0592CDE90147CDE90365B9
:1091B80068469847204606B0BDE8F0811124F9E7D3
:1091C800782600202DE9F043814687B014480E46E2
:1091D80015469846FFF722FF0446F0B90746BD42F8
:1091E80015D10F48FFF71DFFD9F808305BB10222EF
:1091F8008DF800200022CDE90126CDE90325CDF820
:10920800148068469847204607B0BDE8F08306EB0F
:10921800073000F02DFA0137E1E71124F3E700BF2A
:10922800782600202DE9F04FC9B008AA01F14005C1
:1092380014464B780E781B0443EA0663CE78334312
:109248008E78043143EA06238D4244F8043BF0D17A
:109258001024916B16464FEAF14383EA714383EA7F
:109268009123716A366852F8045F31440B444FEA1F
:10927800B54181EAF51181EAD50101340B44402C4E
:10928800D363E6D1D0E914E30093836D0193C36DF2
:109298000293036E0393436E0493836E0593C36E28
:1092A8000693DDE9057ADDE9031CDDE901592B4B5D
:1092B800009E079374464FF00008079A08AB52F8CF
:1092C80004BB53F8283007924FEAF12282EAB11220
:1092D8009B4482EA71625A4427EA010301EA0C0BB3
:1092E80083EA0B031A44524486EA05034FEA743AA8
:1092F80006EA050B8AEAB40A23408AEAB45A83EAE2
:109308000B0308F101085344B8F1400F02EB090BB5
:109318001344A946BA4619D173440365009B2344F4
:109328004365019B33448365029B2B44C365039BC0
:109338005B440366049B0B444366059B6344836656
:10934800069B3B44C36649B0BDE8F08F6746354687
:109358008C46264659461C46AFE700BFD8CF0700C3
:1093680030B5E0B10F4A104900240025C0E9124584
:10937800C0E914120D4C0E4A0E4DC0E916420E4AB1
:10938800C0E918520D4A826602F17452A2F523020E
:109398000023A2F692420364C266184630BD0E202E
:1093A800FCE700BF85AE67BB67E6096A72F36E3CEF
:1093B8003AF54FA57F520E518C68059BABD9831F98
:1093C80070B5F0B1DAB900201CE00C468D18002603
:1093D800AC42F8D0036C14F8012BC2540133402B73
:1093E8000364F5D10146FFF71DFFD0E9123213F5EA
:1093F800007342F10002C0E912320664E8E700296E
:10940800E3D10E2070BDF8B50D4617460446002876
:1094180075D0002973D0066C8022731C372EA25594
:1094280018443ED8C6F13702002103F035FDD4E9CF
:1094380012230821E6FB0123C4E9122312BAE263CE
:1094480023FA01F284F83B3084F83A201A0C1B0EF8
:10945800214684F8392084F838302046FFF7E2FEA8
:10946800691E6FB30023E26EDA4001F8012FA26E85
:10947800DA400A71626EDA400A72226EDA400A73C2
:10948800E26DDA400A74A26DDA400A75626DDA405C
:109498000A76226DDA400833202B0A77E3D10020C0
:1094A800F8BD402BC6F13F024FF0000188BF0022F3
:1094B80003F0F2FC21462046FFF7B4FE3822B3E75A
:1094C8001823226DDA4001F8012F626DDA400A7123
:1094D800A26DDA400A72E26DDA400A73226EDA404F
:1094E8000A74626EDA400A75A26EDA400A76E26E93
:1094F800DA40083B13F1080F0A77E2D1CFE70E20D4
:10950800CEE7F0B578B371B36BB300241C600A449E
:10951800DB274FF0DC0C4FF0DD0E1C688A4204F1AB
:10952800010500EB040604D11D60C0233370002040
:10953800F0BD0E78C02E05D0DB2E0CD01D600D7846
:10954800055506E01D6007551C68651C1D6000F880
:1095580004C00131E1E71D6006551C68651C1D60EB
:1095680000F804E0F5E70E20E2E710B580B3D0E993
:1095780002239A422ED00378012B0FD0022B21D040
:1095880053B9C02928D0DB2902D10123037003E095
:109598004368541C84609954112006E0DC2905D0E6
:1095A800DD290AD0022303700B2010BD511C43682B
:1095B8008160C02199540023E8E7511C8160436809
:1095C800DB21F7E7C029E7D1002303708360E3E7D5
:1095D8000E20EAE70420E8E71846E6E71FB5037817
:1095E8008DF800304368019383688DF80830C368AC
:1095F800054A0393054B684653F8213052F8211069
:10960800984705B05DF804FB7C26002084260020DE
:10961800F0B506460F4B16F804CB43F82C200E4B3A
:1096280017460C460A6943F82C200FCC89B06D46C2
:109638000FC594E80F00002F85E80F00074ACDF802
:1096480010C008BF3A466946304600F041F909B0F3
:10965800F0BD00BF842600207C260020E595070089
:10966800024AD2F80034002BFBD0704700E00140DA
:109678000A4908B50223C1F80435BFF36F8FBFF359
:109688004F8FC1F80805FFF7EBFF0023C1F8043539
:10969800BFF36F8FBFF34F8F08BD00BF00E00140DD
:1096A80010B5094C0123C4F80435BFF36F8FBFF31D
:1096B8004F8F0160FFF7D4FF0023C4F80435BFF3D0
:1096C8006F8FBFF34F8F10BD00E0014070B50E4E95
:1096D80001231546C6F80435BFF36F8FBFF34F8FCC
:1096E8000024AC4207D10023C6F80435BFF36F8FBE
:1096F800BFF34F8F70BD51F8243040F82430FFF786
:10970800AFFF0134EDE700BF00E00140014B1B68EB
:10971800184700BF8C26002038B50B4B98420C46E2
:1097280001D0002038BD0020FFF740FC074B1D7911
:1097380015B901221C601A710020FFF739FC002DB1
:10974800EFD01120EEE700BF002000408C2600205B
:10975800034B984201BF034B00221A601A717047ED
:10976800002000408C2600200023435082B043583C
:109778000193019B02B070471FB501238DF800309B
:10978800044BCDE90110D3E900126846904705B0B3
:109798005DF804FB942600207FB5434AD2F8246183
:1097A800002E60D010464FF49271FFF7DDFF0223C0
:1097B8008DF80030D2F88034C2F880340393D2F8A0
:1097C8003C350293394BDA6801920022C3E906223C
:1097D8006846D3E9001290473348D0F8443173B152
:1097E8004FF4A271FFF7C0FF304B9A693AB10022DB
:1097F800C3E90622D968D0F83C05FFF7BDFF2A481F
:10980800D0F82031ABB14FF49071FFF7ADFF0123D1
:10981800C360264B5A6962B1D0F84C1502910022F8
:1098280099688DF8002001915A616846D3E90012C1
:1098380090471D48D0F858319BB14FF4AC71FFF7F1
:1098480093FF1A4B5A6962B1D0F84C150291002265
:1098580099688DF8002001915A616846D3E9001291
:10986800904704B070BDD2F81031002BB4D04FF43B
:1098780088711046FFF778FF0C4BD2F83C059969C0
:109888008842A9D1DC69D96864B1D2F8005225F0C0
:109898002005C2F800521A699C61DA60DE61FFF7A0
:1098A8006BFF99E79C61FAE70020004094260020AE
:1098B8001F2886BF00F01F00044B4FF0A04300F59F
:1098C800E070022243F82020704700BF00030050D8
:1098D8002DE9F843644D90F80480242303FB0853D2
:1098E800064693F820300C469146002B40F0B8808D
:1098F8005E490068FFF710FF0746002840F0B28075
:109908002068421C10D01F2887BF594A00F01F0347
:1099180003464FF0A0420121994003F5E073C2F8D5
:109928000815032142F8231061684B1C0DD01F292C
:109938008BBF01F01F030B464D4A4FF0A04203F5C1
:10994800E0734FF0000C42F823C03368A269C3F8F3
:10995800242594F814C0627DBCF1010F4CEA020280
:10996800C3F86C25C3F80C05C3F814152BD1A168EE
:10997800481C0DD01F298BBF01F01F020A463C4826
:109988004FF0A04002F5E0724FF0000C40F822C002
:10999800E068421C13D01F2887BF354A00F01F0C0F
:1099A80084464FF0A0424FF0010E0EFA0CFE0CF563
:1099B800E07CC2F808E54FF0030E42F82CE0C3F84B
:1099C8000805C3F81015242303FB08F3EA18C2F8A6
:1099D80004902269EA50B9F1000F2BD03068227F39
:1099E8004FF48871FFF7C0FE4FF49071FFF7BCFE8B
:1099F8004FF49271FFF7B8FE4FF4A271FFF7B4FE6F
:109A08004FF4AC71FFF7B0FE1A4BC0F8043340F3C3
:109A1800073153010029C0F30730DBB21BDB164ABC
:109A2800541884F800330123490900F01F008340CB
:109A380042F8213033680822C3F80025242303FBA9
:109A480008550023C5E906336B61012385F82030EA
:109A58003846BDE8F883094A00F00F001354E9E7D7
:109A68000827F5E71127F3E794260020A1970700B8
:109A7800000300501003420000E100E014ED00E094
:109A88002DE9F0413D4D06790468242303FB065374
:109A980002465B68ABB13A4BC4F8083344F307336A
:109AA800002B4FEA14300CDB00F01F005B0901218A
:109AB80081402033334840F82310BFF34F8FBFF362
:109AC8006F8FD4F8003223F02003C4F80032242327
:109AD80003FB06539B6933B14FF4A2712046FFF78D
:109AE80043FE012363604FF4AC712046FFF73CFE50
:109AF8000123E360242303FB0653D4F858110029FB
:109B0800FBD0996919B1D4F844110029F5D0002384
:109B1800C4F800351368D3F80C05D3F81485D3F8C6
:109B28000815D3F810754FF0FF329042C3F80C2592
:109B3800C3F81425C3F80825C3F8102501D0FFF78A
:109B4800B7FEB8F1FF3F02D04046FFF7B1FE7A1CDE
:109B580002D03846FFF7ACFE4B1C02D00846FFF790
:109B6800A7FE2046FFF7F4FD242303FB0655002338
:109B780085F820306B60BDE8F08100BF9426002096
:109B88001003420000E100E00279044B242101FBAC
:109B980002335869003818BF012070479426002006
:109BA80001F06043B3F1005F2DE9F04707468846AE
:109BB80092463AD190F80490FFF7E6FF0446002851
:109BC80035D11D4E3A68242505FB09654FF490717F
:109BD8001046C5F814A0C5F80880FFF7C5FD4FF476
:109BE800AC71FFF7C1FD6B69A968C2F84415C2F8EA
:109BF8004835012393606B68DBB9D2F82031D2F87D
:109C080058011BB90028F8D00F2007E00028FBD125
:109C18000123D360D2F85831002BFBD0242303FB57
:109C2800096600237361BDE8F0871020FBE7112067
:109C3800F9E72046F7E700BF942600202DE9F8430E
:109C480001F06043B3F1005F0E4668D10779354DE6
:109C5800242303FB0753D3F80480B8F1000F04D082
:109C680003684FF40471C3F80813242303FB075354
:109C7800996961B1D96900293DD0B8F1000F04D0C4
:109C880003684FF40472C3F80423112031E09A6189
:109C9800DE6089462423046803FB07532046D96104
:109CA8004FF48871FFF760FD4FF4A271FFF75CFD78
:109CB800C4F83465C4F83825B9F1000F20D1012360
:109CC8002360B8F1000F24D1D4F81031D4F844211E
:109CD800D4F8240113431AD10028F5D0242202FB1A
:109CE80007550022904218BF03209342AA6118BF6B
:109CF8000F20BDE8F8831E6111464FF00109C9E73E
:109D0800D4F8003243F02003C4F80032D9E71346F0
:109D1800E4E74FF40473C4F804330020E9E71020A3
:109D2800E7E700BF9426002028B139B10023C1E934
:109D380000301846704748F21050704748F21350E8
:109D4800704730B1036848F240508B4208BF00208A
:109D5800704748F21050704728B148F211509142AC
:109D680008BF0020704748F21050704770B506468B
:109D78000C461D46FFF7D8FF50B9B3794AB1AB423C
:109D88000AD111462046FEF767FB08B9044B236049
:109D980070BD48F21050FBE748F21150F8E700BFD9
:109DA8007052464D2DE9F0470C4606460F492046AD
:109DB800DDE9088915461F46FFF7C3FFA0B96368A8
:109DC8005A79494652004046FFF7C6FF60B94DB17F
:109DD800CDF820803B462A4621463046BDE8F0476C
:109DE800FEF742BB48F21050BDE8F0877052464D6E
:109DF80010B5044638B149B10B684160984708B9B5
:109E0800044B236010BD48F20150FBE748F21050A4
:109E1800F8E700BF6E524648F0B4134648B10768E9
:109E2800094EB7420AD161B12AB14368F0BC5B68F8
:109E3800184748F201531846F0BC704748F20253DD
:109E4800F9E748F21053F6E76E524648F0B460B1AD
:109E580007680C4EB7420CD171B143681568DC68CD
:109E6800A5420CD3F0BC9B68184748F20150F0BCDF
:109E7800704748F20250FAE748F21350F7E748F201
:109E88001450F4E76E524648F7B50446DDE9086712
:109E980015460193FFF7ACFF68B9019A2946204699
:109EA800FFF7BAFF38B93A463146204603B0BDE855
:109EB800F040FFF7CBBF03B0F0BD0000F8B50A4F84
:109EC8000A4C0B4EE41B0123E40833700025A5421D
:109ED80003D1022333700020F8BD57F83530984776
:109EE8000028F9D10135F2E748CF070048CF07002D
:109EF800B826002001390144814200D27047037816
:109F08000A7800F8012B01F80139F5E7013A024413
:109F18000139824200D2704711F8013F02F8013935
:109F2800F7E770B516460D46FFF7F0FF3246A91958
:109F38003044BDE87040FFF7E9BF38B50D46044628
:109F4800FFF7D8FF29466019BDE83840FFF7D2BFB0
:109F5800BFF34F8F0549064BCA6802F4E06213430A
:109F6800CB60BFF34F8F00BFFDE700BF00ED00E0FF
:109F78000400FA0508B507281BD8DFE800F004122A
:109F88001A1A1A041A040120FEF746FA0020FEF7EE
:109F98000FFA0120FEF70CFABDE808400220FEF790
:109FA8001BBA0120FEF718FABDE808400220FEF7A8
:109FB800FFB908BD08B5FFF7CBFF000008B501F0F1
:109FC8005DFB4FF48051002001F034F908B1FFF730
:109FD800BFFF0548C0F5FC2101F02CF90028F6D197
:109FE800024801F047F8F2E7008007007D9F07006C
:109FF8008B1802448B4204D013F8010D02F8010DAE
:10A00800F8E7704700000000C3F10803DB0070B5F3
:10A018000133002403A500BF5B1920C940CAAD194C
:10A0280020C0184720C940CA754120C020C940CA6D
:10A03800754120C020C940CA754120C020C940CA06
:10A04800754120C020C940CA754120C020C940CAF6
:10A05800754120C020C940CA754120C064412046CE
:10A0680070BD00BF00000000C3F10803DB0070B53D
:10A078000133002403A500BF5B1920C940CAAD1BEA
:10A0880020C0184720C940CAB54120C020C940CACD
:10A09800B54120C020C940CAB54120C020C940CA26
:10A0A800B54120C020C940CAB54120C020C940CA16
:10A0B800B54120C020C940CAB54120C06441B4FAA6
:10A0C80084F0400970BD00BF2DE9F04F08B4F8CA0C
:10A0D80004B451F8042BA3FB028940F8048B4FF019
:10A0E800000AE4FB629A4FF0000BE5FB62AB4FF00D
:10A0F800000CE6FB62BC4FF0000EE7FB62CE51F8A5
:10A10800042B4FF00008E3FB628940F8048BE4FB62
:10A11800629AE5FB62ABE6FB62BCE7FB62CE51F8F4
:10A12800042B4FF00008E3FB628940F8048BE4FB42
:10A13800629AE5FB62ABE6FB62BCE7FB62CE51F8D4
:10A14800042B4FF00008E3FB628940F8048BE4FB22
:10A15800629AE5FB62ABE6FB62BCE7FB62CE51F8B4
:10A16800042B4FF00008E3FB628940F8048BE4FB02
:10A17800629AE5FB62ABE6FB62BCE7FB62CE40F8A5
:10A18800049B40F804AB40F804BB40F804CB40F80B
:10A1980004EB0CBC052B00F01E810C68A0F1140028
:10A1A800A1F11401A2F1140252F804EB4FF00005DA
:10A1B80050F8046BE4FB6E5652F804EB50F8047B3D
:10A1C800E4FB6E6752F804EB50F8048BE4FB6E78FE
:10A1D80052F804EB50F8049BE4FB6E8952F804EB48
:10A1E80050F804ABE4FB6E9AA0F1140052F8044B4B
:10A1F80051F804EB4FF0000CE4FB6EC540F804CBBB
:10A2080051F804EBE4FB6E5640F8045B51F804EB9C
:10A21800E4FB6E6740F8046B51F804EBE4FB6E78DE
:10A2280040F8047B51F804EBE4FB6E8940F8048B9A
:10A2380051F804EBE4FB6E9AA0E80006062B00F048
:10A24800CA800C68A0F11800A1F11801A2F1180247
:10A2580052F804EB4FF0000550F8046BE4FB6E561F
:10A2680052F804EB50F8047BE4FB6E6752F804EBF9
:10A2780050F8048BE4FB6E7852F804EB50F8049B1A
:10A28800E4FB6E8952F804EB50F804ABE4FB6E9AD9
:10A2980052F804EB50F804BBE4FB6EABA0F11800D5
:10A2A80052F8044B51F804EB4FF0000CE4FB6EC578
:10A2B80040F804CB51F804EBE4FB6E5640F8045B1D
:10A2C80051F804EBE4FB6E6740F8046B51F804EBBB
:10A2D800E4FB6E7840F8047B51F804EBE4FB6E89EC
:10A2E80040F8048B51F804EBE4FB6E9A40F8049BA9
:10A2F80051F804EBE4FB6EABA0E8000C072B6AD026
:10A3080008B40C68A0F11C00A1F11C01A2F11C0208
:10A3180052F804EB4FF0000550F8046BE4FB6E565E
:10A3280052F804EB50F8047BE4FB6E6752F804EB38
:10A3380050F8048BE4FB6E7852F804EB50F8049B59
:10A34800E4FB6E8952F804EB50F804ABE4FB6E9A18
:10A3580052F804EB50F804BBE4FB6EAB52F804EB84
:10A3680050F804CBE4FB6EBCA0F11C0052F8044B7F
:10A3780051F804EB4FF00003E4FB6E3540F8043B62
:10A3880051F804EBE4FB6E5640F8045B51F804EB1B
:10A39800E4FB6E6740F8046B51F804EBE4FB6E785D
:10A3A80040F8047B51F804EBE4FB6E8940F8048B19
:10A3B80051F804EBE4FB6E9A40F8049B51F804EB67
:10A3C800E4FB6EAB40F804AB51F804EBE4FB6EBC65
:10A3D800A0E8001808BCBDE8F08F002210B51446AC
:10A3E80053B28B4204DA1BB2013240F82340F7E73C
:10A3F80010BD10B500231A465CB28C4204DA50F83E
:10A40800244001332243F7E7B2FA82F0400910BD35
:10A418004A11012350F8220001F01F0103FA01F14B
:10A4280008407047013949B2002909DA013149B2B7
:10A43800A1B101F18043013B50F82330002004E032
:10A4480050F82130002BEDD0F0E713B15B08013054
:10A45800FBE7013900EB411108B270470846704725
:10A4680030B5002463B2934206DA1BB2013451F8C6
:10A47800235040F82350F5E730BD10B5013A52B2E9
:10A48800002A0ADB13B250F8234051F823309C42CB
:10A4980005D8F3D24FF0FF3010BD002010BD0120C9
:10A4A80010BD00EB81010023884206D251F8042D2B
:10A4B80043EA52030B60D307F6E7704770B59DF97E
:10A4C80010401E4623460546FFF79EFD30B922463A
:10A4D80029463046FFF7D1FF012807D023463246E8
:10A4E80029462846BDE87040FFF7BEBD70BD70B56F
:10A4F8009DF910401E4623460546FFF7B5FD38B1C5
:10A508002346324629462846BDE87040FFF77CBD01
:10A5180070BD00002DE9F04FB5B004AD9DF9F840CD
:10A528001F46804623462846FFF7CEFD24AB21462A
:10A53800384602930395FFF775FF494BC0EB84102B
:10A5480005B22B40002BBEBF03F1FF3363F01F039E
:10A558000133202695FBF6F676B20FFA83F914A894
:10A568003146FFF73AFFB9F1000F30B214DD14ABF2
:10A57800002203EB8000C9F120061346A34212D241
:10A5880057F8231001FA09FE4EEA020240F8232088
:10A5980021FA06F20133F1E714AB2246394603EB00
:10A5A8008000FFF75DFF27B27B00019314AB03EB3C
:10A5B800870704F1FF3934AB012603EB8909002D25
:10A5C80042DB34AB0022C6F10100964603EB860A53
:10A5D80003EB8000019B51B299421BDA0FFA81FC10
:10A5E8005AF8C83C53F82CB034AB03EB810151F84E
:10A5F800803CC3EB0B03CEEB03039B4504D034BF75
:10A608004FF0010E4FF0000E50F8C81C013241F80F
:10A618002C30DFE7CEEB06035E42214614A85E41EC
:10A62800FFF73FFF34AB03EB8403214653F8802C3C
:10A6380059F8803C384643EAC273013D49F8803CEA
:10A648002DB2FFF72EFFBAE734AB03EB860622469E
:10A6580056F8C81C4046FFF703FF35B0BDE8F08F39
:10A668001F00008030B51C4691B0054693F90030B4
:10A678006846FFF729FDD4F8AC3069462846984764
:10A6880011B030BD13460A46FFF7ECBF2DE9F0477D
:10A6980093F9006092B00446894610463146154643
:10A6A8009846FFF7A6FE002840F0988042464946A3
:10A6B80002A8FFF7E7FF434602AA21460AA8FFF7C8
:10A6C800D1FF02A908464246FFF7DCFF43462A4667
:10A6D80049464846FFF7C6FF08F10407424629469F
:10A6E8002846FFF7CFFF3B462A46214620460096DC
:10A6F800FFF7E4FE3B462A46294628460096FFF720
:10A70800DDFE3B462A46214628460096FFF7EFFE27
:10A7180043462A4621462046FFF7A4FF3B462246E9
:10A72800214628460096FFF7C9FE3B4600962A4672
:10A7380021462046FFF7C2FE2368DB0714D53346BF
:10A748003A4621462046FFF75FFC314682462046BE
:10A75800FFF7A7FE06F18043013B54F8230040EAC7
:10A76800CA7044F8230003E031462046FFF799FEFB
:10A77800424621462846FFF785FF3B460AAA294656
:10A7880028460096FFF7B3FE3B460AAA2946284604
:10A798000096FFF7ACFE0AA908463B462A460096F3
:10A7A800FFF7A5FE43460AAA21462046FFF75AFFAF
:10A7B80002AA3B46104621460096FFF798FE32460D
:10A7C80029462046FFF74CFE324649462846FFF701
:10A7D80047FE324602A94846FFF742FE12B0BDE8DE
:10A7E800F0872DE9F04115468AB0044688462022B4
:10A7F800002102A802F050FB2E1D95F900700323DA
:10A808002A46414620460293FFF73CFF334602AAF8
:10A81800214620460097FFF76AFE2B46424621460E
:10A828002046FFF71FFF0097334605F184022146B3
:10A838002046FFF743FE0AB0BDE8F081F0B50822D4
:10A8480089B00C460646FFF70BFECB6A03930B6BE9
:10A8580004934B6B05938B6B0693CB6B0793002785
:10A8680008236A4669466846029701970097FFF7EA
:10A87800CBFB082305466A4631463046FFF7C4FB42
:10A88800236B0393636B0493A36B0593E36B0693AA
:10A89800054408236A46694668460797FFF7B4FBEC
:10A8A800082305446A4631463046FFF7ADFB236A64
:10A8B8000093636A0193A36A0293A36B0693E36B05
:10A8C8000793054408236A4631463046059704979E
:10A8D8000397FFF799FB636A0093A36A0193E36AFE
:10A8E800A26B0293636B039304920693E26B236A51
:10A8F8000592054407936A46082331463046FFF718
:10A9080083FBE36A0093236B0193636B0293236ACF
:10A918000693A36A0793054408236A4631463046DE
:10A92800059704970397FFF79FFB236B0093636BCF
:10A938000193A36B0293E36B0393636A0693E36A41
:10A9480007932D1A08236A4631463046059704971F
:10A95800FFF78AFB636B0093A36B0193E36B02938E
:10A96800236A0393636A0493A36A0593236B07938B
:10A978002D1A08236A46314630460697FFF774FBBE
:10A98800A36B0093E36B0193636A0393A36A049335
:10A99800E36A0593636B07932D1A08236A463146C9
:10A9A800304602970697FFF75FFB2D1A16D5082346
:10A9B8000D4A31463046FFF727FB2D18F7D410E033
:10A9C800082231460848FFF758FD012809D0082316
:10A9D800054A31463046FFF747FB2D1A002DEFD0C8
:10A9E800F5E709B0F0BD00BF1CD10700F0B515466A
:10A9F80089B01C4607460E461A4629466846FFF7A0
:10AA080041FE23466A4639463846FFF72BFE234661
:10AA18002A4669466846FFF725FE23466A463146B8
:10AA28003046FFF71FFE09B0F0BD2DE9F0438BB0AB
:10AA38001446129D15F9046B00961F4680468946F8
:10AA48002B460246214602A8FFF751FD02A9129A99
:10AA58000846FFF717FE129B02AA41464046FFF739
:10AA680001FE129B02AA21462046FFF7FBFD2B465A
:10AA78004A46394638460096FFF739FD129A394654
:10AA880002A8FFF7FFFD02A92B464246084600969A
:10AA9800FFF72DFD02A92B46224608460096FFF730
:10AAA80026FD2B464246214620460096FFF71FFD0D
:10AAB800129B224649464846FFF7D4FD2B4602AA78
:10AAC800414620460096FFF712FD129B2246394662
:10AAD8003846FFF7C7FD2B464A46394638460096A2
:10AAE800FFF705FD324602A92046FFF7B9FC0BB077
:10AAF800BDE8F0832DE9F047B3F9025089460824F0
:10AB0800E91D1F3591FBF4F42021944295FBF1F5E2
:10AB18004FFA85F828BF14461F4641460646FFF7F8
:10AB28005CFC22464946FFF763FAB7F90230E400B5
:10AB38009C4220D9E41A06EB85010023C4F12000C9
:10AB48008E4208D251F8042D22FA04F52B430B60EB
:10AB580002FA00F3F4E72437424631463846FFF755
:10AB68008CFC012807D043463A4631463046BDE8BA
:10AB7800F047FFF779BABDE8F08770B5036813F0BE
:10AB880001050646144605D013460A460146FFF756
:10AB98003BFA054621463046FFF783FC45B104F1F0
:10ABA8008042013A56F8223043F0004346F82230FA
:10ABB80070BDF0B50F46A1B0064619463846154691
:10ABC8001C46FFF716FC20B121463046FFF705FC6E
:10ABD80074E0224639466846FFF742FC2246294679
:10ABE80008A8FFF73DFC214610A8FFF7F6FB012354
:10ABF800214618A81093FFF7F0FB224608A96846DB
:10AC0800FFF73BFC002854D0009BDA0704D4214608
:10AC18006846FFF746FC26E0089BDB0704D421467C
:10AC280008A8FFF73EFC3EE0002823461FDD08AADF
:10AC380069466846FFF718FA21466846FFF731FC6F
:10AC4800224618A910A8FFF718FC002805DA10A951
:10AC580023462A460846FFF7D7F910A9234618AA1B
:10AC68000846FFF701FA2246294610A81EE008A95F
:10AC78006A460846FFF7F8F9214608A8FFF711FCCD
:10AC8800224610A918A8FFF7F8FB002805DA18A92A
:10AC980023462A460846FFF7B7F918A9234610AAFB
:10ACA8000846FFF7E1F92246294618A8FFF765FF8D
:10ACB800A3E7224610A93046FFF7D2FB21B0F0BD2A
:10ACC8000048704718D107002DE9F04FEDB01F4636
:10ACD800DDF8D8810590B8F9026098F90040202382
:10ACE8001F3696FBF3F676B206F1FF3924AB002542
:10ACF80043F829506CAB03EB89034CA88A4693466A
:10AD0800394698F9012043F8805C43F8605CFFF706
:10AD18006FF998F9012054A8B918FFF769F9214685
:10AD28004CA8FFF766FB0746002840F0378121460C
:10AD380054A8FFF75EFB0390002840F0318108F12A
:10AD4800240332464CA918460293FFF796FB0128C4
:10AD580040F02881324654A90298FFF78EFB01285B
:10AD6800069040F01F811CAD0CAF3346029A54A9DF
:10AD78002846FFF71EFF039B47F829305A465146DD
:10AD880038464346FFF7B6FE39463846029B0096DA
:10AD98002A46FFF7BFFB0DF5B879029B00962A46B5
:10ADA8004CA914A8FFF7B6FB484622460599FFF7B9
:10ADB80057FBA30009EB030A0793059BA100591849
:10ADC80008F1440B50462246FFF74AFB59462246F3
:10ADD80034A8FFF745FBA3000BEB030122463CA870
:10ADE800FFF73EFB08F10403494634AA28460094BD
:10ADF8000493FFF77CFB53464A463CA934A8CDF898
:10AE08000080FFF712FE2346049A29462846FFF7DA
:10AE1800D0FE2A46514648464346FFF7E7FD039BC6
:10AE280008933146059B0A933846CDF824B0CDF8EF
:10AE38002C90FFF7F7FA3146814614A8FFF7F2FA8B
:10AE48004845B8BF48461FFA80F909F1FF3B0FFA99
:10AE58008BFB59463846FFF7DBFA5946071C14A8FE
:10AE680018BF0127FFF7D4FA002814BF02230023D4
:10AE78001F430DF1200A22465AF8277024A83946A4
:10AE8800FFF7EEFA0DF1B00BA300F9182246584669
:10AE9800FFF7E6FA21462846FFF79FFAA9F10209CB
:10AEA800069B2B600FFA89F90DF1900AB9F1000F92
:10AEB80045DB43462A46D8F8A47059465046B84759
:10AEC80049460CA8FFF7A4FA4946071C14A818BF5E
:10AED8000127FFF79DFA002814BF022300231F4310
:10AEE80008AB53F827702FB32246394634A8FFF72A
:10AEF800B7FA079B2246F9183CA8FFF7B1FA434670
:10AF08002A463CA934A8FFF771FD049B009434AA93
:10AF1800514644A8FFF7EBFA5B4652463CA934A8D1
:10AF2800CDF80080FFF781FD434644AA294628460C
:10AF3800FFF798FB09F1FF390FFA89F9B6E72346BD
:10AF4800049A29462846FFF734FE43462A465946BE
:10AF58005046FFF74BFD324651460298FFF78DFAEF
:10AF6800012805D03346029A51465046FFF77CF82F
:10AF7800013C64B20020002C0CDB23B26CAA02EB6B
:10AF880083015AF8232051F8803C013C5340184370
:10AF980064B2F0E7B0FA80F0400904E0284602E025
:10AFA800384600E003986DB0BDE8F08F13681F2B9A
:10AFB80010B5144607D900220830FEF724FA08B95C
:10AFC8002023236010BD48F21450FBE70830FEF739
:10AFD800F7B90830FEF7C4B9014B01221A7070475F
:10AFE800DC2A0020BFF34F8F0549064BCA6802F4DC
:10AFF800E0621343CB60BFF34F8F00BFFDE700BF94
:10B0080000ED00E00400FA05024B034800221A7024
:10B0180001F0C6B8DC2A0020EDAF0700042810B5FF
:10B02800044609D8022811D816D00D4B1B68B3B1B5
:10B038002046BDE810401847831F012BF5D8094B5F
:10B04800094800221A7001F0ABF8EEE707494FF4FF
:10B05800701000F0F1F9E8E700F0E0FFE5E710BD57
:10B06800E02A0020DC2A0020EDAF070011B007001D
:10B078000020704738B5584B584A18604FF0A04325
:10B088000020C3F8442701F0A1F80446002840F046
:10B098009D8000F09DFA012800F09380022800F0BE
:10B0A8009780002840F092804FF080434C4DD3F8B1
:10B0B800202502F0F902A92A02BFD3F8202502F0C0
:10B0C8005602C3F820252B6A0CBF04460124012B25
:10B0D80038D04FF4701400F015FB424A2021182094
:10B0E800FDF7A4FE08B1FEF765FF4FF08043D3F8E3
:10B0F8000024D20742BFD3F8002442F00102C3F86B
:10B108000024D3F81C2502F0F902B12A02BFD3F8B3
:10B118001C2502F04E02C3F81C25FFF7A9FF0028E2
:10B1280054D12046304900F087F9304800F002FC3D
:10B1380000284BD100F00CFBFDF7F8FE20BF40BF04
:10B1480020BFF7E74FF440535A68294B9A4209D079
:10B1580001F0BEF8AA69014694B1264801F06CFBDB
:10B1680090B9B6E76A6B1CB995F86032012BEFD03D
:10B1780021484FF4805101F05FFB0028E8D1A8E78F
:10B1880095F8A132012BE8D14FF0A043D3F8103540
:10B1980098039ED54FF08043D3F80024D10798D464
:10B1A800D3F81C3503F0F903B12B92D001F01BF84A
:10B1B80060B9124B1870124800F0F2FF00F024F842
:10B1C80004E00E4B0F481C7000F0EAFF032038BD66
:10B1D8004FF4A0247FE700BFE02A00200C00030002
:10B1E80000340020BC26002011B0070025B007005D
:10B1F800DBE5B151A136002060360020DC2A0020B2
:10B20800E1AF0700EDAF070008B5074B4FF0FF327D
:10B21800C3F88020C3F8802100F0DBFBBDE80840BC
:10B228004FF4805000F028B800E100E080F308886F
:10B2380008470000C1F30B0270B5B2B9B0F5FE2F94
:10B2480013D80C4E3468072C11D8230103F180451C
:10B2580005F5F0350134C5F80008C5F804180221D1
:10B26800C5F808183460104670BD0722FBE70422B1
:10B27800F9E700BFE42A002010B504461448C0F5D9
:10B288000021FFF7D7FF08B1FEF794FE01F020F880
:10B29800104B9B6903F6FF7323F47F6323F00F03BE
:10B2A80019180020FFF7C6FF08B1FEF783FEEFF379
:10B2B80005830023D4E9000183F3148883F31088FD
:10B2C80083F3118883F31388BDE81040FFF7AEBFFE
:10B2D80000800700003400201FB518490B7853BBC5
:10B2E8004FF08043A024D3F81824D2035CBF012276
:10B2F8009A60134B0022C3F80021D3F80001039091
:10B308000398C3F84021D3F8400102900298C3F88B
:10B318004421D3F84401019001980A4880F8244355
:10B32800102444600220C3F8082501229A601A609C
:10B33800C3F804030A7004B010BD00BFEC2A002053
:10B348000040024000E100E037B56FF07F42154C45
:10B35800057BD4F804358A4228BF0A46891A134463
:10B368004A1E942A23F07F4305F5A8729BBF963B9B
:10B3780096314160416044F822300B4B4FF4F8603D
:10B3880043F001039847094BAA00134400221A60AE
:10B398001B680193019B4FF48033AB40C4F804331E
:10B3A80003B030BD00400240E0D1070040410240F8
:10B3B8001C4BD3F804212DE9F34152B11A490A680C
:10B3C80001320A600022C3F80421D3F80431009343
:10B3D800009B164C164DDFF84C80164E00272B6844
:10B3E80073B12F602B68227B0193019B4FF480334C
:10B3F8009340C8F80833616851B12046FFF7A4FFAD
:10B408000435B54204F11004E9D102B0BDE8F08179
:10B41800A16811B12046FFF797FF2368002BEFD0F2
:10B428009847EDE700400240E82A00202026002047
:10B43800404102404841024070B50B4B1D682A7BD1
:10B448004FF480339340094A0E46C2F80833044645
:10B4580040B1FFF741FF2E6021462846BDE8704005
:10B46800FFF772BF70BD00BF4026002000400240B9
:10B4780070B5074B1D6804460E46A860FFF72CFF01
:10B488002E6021462846BDE87040FFF75DBF00BF2B
:10B4980044260020014B01221A707047ED2A002033
:10B4A8002DE9F74F06468846A8EB06052D0B02F650
:10B4B800FF77144600F026F9082D28BF08252B032E
:10B4C800DFF868B001933F0B0CB9234629E0BD4271
:10B4D8002CBFBA46AA464FF000025146304634BF48
:10B4E800DDF80490A14600F057FA0346C8B909F1FF
:10B4F800030222F003024146304600F03FFA0346B9
:10B5080078B9DBF830304B44CBF8303000F04EFEE1
:10B51800A7EB0A07A4EB09044E44C84403460028D5
:10B52800D2D0184603B0BDE8F08F00BF0034002029
:10B5380010B500F0F3FE124A916C01F500535C68F7
:10B54800104B9C4218D1D2E90C32934216D0884253
:10B5580004D1BDE81040002000F028BED21A02F63F
:10B56800FF7222F47F6222F00F0219441844FFF799
:10B5780097FF0028EDD010BD0320FCE70020FAE774
:10B5880000340020DBE5B15138B50F4BDA6A5D6A4B
:10B598009C6CAC2A10D15B6B1C44ED1A0B482A46F4
:10B5A800214601F0A9FC68B100F0D2F829462046EE
:10B5B800BDE8384000F008BA002CEFD100F09CFE3E
:10B5C8000446EBE738BD00BF0034002000800700C8
:10B5D80070B5264CE36AAA2B38D005D8012B0BD0BE
:10B5E800A52B2FD0002070BDAC2BFBD1FFF7A0FFFF
:10B5F80050BBFFF7C9FF27E0A66C656A00F068FE3C
:10B608008642236B29D100F063FE00222946FDF70C
:10B61800D1FCA36A984202BF0123C4E90703A561CC
:10B628000025134800F026FE124B134800221A701A
:10B6380000F0BCFD68B975B1236A012B14BF012065
:10B648000220D0E7FFF774FF0125EAE7FFF79CFF28
:10B65800E6E70320C7E70120C5E7EA1AF11818440E
:10B66800FFF71EFF0028DBD1CDE700BF0034002024
:10B6780024340020ED2A00209DB4070010B50024D2
:10B68800D4F8F83F013304D1084940F6F870FEF7C2
:10B6980007F8D4F8FC3F013307D1BDE810404FF458
:10B6A800FC2140F6FC70FDF7FBBF10BD00800700D1
:10B6B8000A4AD2F800347BB109480023D2F80815A9
:10B6C800D940C90748BF03F5C07103F1010348BF5A
:10B6D80042F82100072BF1D1704700BF000001405C
:10B6E8003546526EFFF7E4BF054B002282B0C3F81F
:10B6F8000021D3F800310193019B02B0704700BFCD
:10B708000000014038B50E4D2B78BBB90D4BD3F86E
:10B7180000248AB1D3F80445FFF7CAFF40F6165350
:10B728009C42B8BF1C460849A4F54860FFF7A0FE34
:10B73800064B4FF480321A6001232B7038BD00BFCE
:10B74800EE2A002000000140EDB6070000E100E00D
:10B75800034BD3F800340BB1FFF7AABF704700BF03
:10B76800000001404FF08053D3F83001A0F10D03E1
:10B778005842584170470000024AD2F80034002B62
:10B78800FBD0704700E0014010B5FFF7EBFF40B178
:10B798004FF080430022C3F80C21C3F81021C3F8EE
:10B7A8003825FFF7DFFF002846D04FF08052514B75
:10B7B800D2F80414C3F82015D2F80814C3F82415D5
:10B7C800D2F80C14C3F82815D2F81014C3F82C15A5
:10B7D800D2F81414C3F83015D2F81814C3F8341575
:10B7E800D2F81C14C3F84015D2F82014C3F8441535
:10B7F800D2F82414C3F84815D2F82814C3F84C1505
:10B80800D2F82C14C3F85015D2F83014C3F85415D4
:10B81800D2F83414C3F86015D2F83814C3F8641594
:10B82800D2F83C14C3F86815D2F84014C3F86C1564
:10B83800D2F84424C3F87025FFF794FF48B14FF0BD
:10B848008043D3F80024D20744BF6FF00102C3F845
:10B858000024294AD2F8883043F47003C2F88830AB
:10B86800BFF34F8FBFF36F8F4FF08053D3F8302162
:10B878000D2A0ED1D3F83431022B02D81F4AD35CDB
:10B888003BB14FF01023D3F808224FF08043C3F8A0
:10B8980058254FF01023D3F80022002A03DBD3F8F1
:10B8A8000432002B22DA164901234FF01020C1F888
:10B8B80004351224FFF760FFC0F80042FFF75CFF71
:10B8C800C0F80442FFF758FF0023C1F80435FFF71A
:10B8D80053FFBFF34F8F08490A4BCA6802F4E0626E
:10B8E8001343CB60BFF34F8F00BFFDE7064B074AFA
:10B8F8001A6010BD00C0004000ED00E0E6D107006E
:10B9080000E001400400FA05482600200090D0031A
:10B91800831F012B10B5044602D8002000F092FCCA
:10B92800034B1B681BB12046BDE81040184710BDEB
:10B93800F02A002008B5074B18600020FFF7E8FF41
:10B94800054800F067FC20B9BDE80840024800F04F
:10B958004DBA08BDF02A002019B9070043690BB198
:10B96800C068184770470000024903480022FDF7E5
:10B97800A7BB00BFB8CF07000C26002007B500936F
:10B9880013460A4601460348FDF79EFB03B05DF8DF
:10B9980004FB00BF0C26002013460A460146014856
:10B9A800FDF799BB0C260020014B18700B2070473F
:10B9B800F42A0020024B002218781A70704700BF42
:10B9C800F42A002018DF704784B0684604B0FFF7F7
:10B9D800F9BF70B5062388B000254FF48056CDE92D
:10B9E8000436CDE9065508AB13E90F006C4684E828
:10B9F8000F002046FFF7E6FF072802BF4FF000536D
:10BA080028461E6008B070BD014B06201B68184709
:10BA1800002B00200A2803D90B38C0B2FFF7C4BF97
:10BA28007047000010B5044686B00020FDF75AFBA9
:10BA3800014638B1174A1821204606B0BDE8104023
:10BA4800FDF718BA1822684601F026FA0423124AAC
:10BA58008DF80030114B116D1B68994212D1104BB3
:10BA6800186801F093F88DF80100FFF7D3FFD4E9C7
:10BA780001138DF80100684698470A4800F096FBC4
:10BA880006B010BD01238DF801306846D4E90113D2
:10BA98009847F5E72DBA070000340020F82A00205F
:10BAA800FC2A002011BA0700F0B5044687B0182216
:10BAB8000021684601F0F0F923788DF80030012262
:10BAC8008DF801200C2B00F28181DFE813F00D00C6
:10BAD80077000F00770077007F0177006E0077000E
:10BAE8006C001C002F0072008DF80420D4E90113AB
:10BAF800684698479DF80130012B00F05C819D4B0A
:10BB080005201B6856E14FF08053D3F800210192BD
:10BB1800D3F804210292D3F80C2192020492D3F8AC
:10BB28001021920203921B690593DFE74FF44053FB
:10BB3800914D586891492E6A227C884214BF01238E
:10BB48000223012E08BF013352B902238DF80430B5
:10BB5800EB6802938A4B0393C3F5FC230493C5E770
:10BB6800012A10D188420ED14FF440531A78142A72
:10BB78008CBF5B69002302934FF4805303934FF407
:10BB880040539B68EAE79A4209D201238DF80430B2
:10BB9800AB68029300F0C0FBAB690390DEE7FF23BC
:10BBA8008DF80430A2E7237CFAE7238AADF8043045
:10BBB8009CE7704B07201B68984797E7062B714A4C
:10BBC80001D0012B01D1216911701178012904D00C
:10BBD800022957D0002313709AE0013B072B85D820
:10BBE80001A252F823F000BF11BC0700F5BA070004
:10BBF80081BC070051BC0700F5BA07007BBC0700F1
:10BC0800F5BA070029BC07005A4B03201B68984760
:10BC1800606900F059FDFFF7FDFE8DF8010065E74A
:10BC2800A18A206900F068FDFFF7F4FE524B8DF8F9
:10BC38000100DA6B1B6C0293E3680192002B3FF45E
:10BC480055AF2069984751E74F49504800F0A2FD89
:10BC5800FFF7E0FE01288DF801007FF447AF0020D0
:10BC680000F0A4FA00283FF441AF0A238DF8013010
:10BC78003CE74FF4007303933F4BDA6B1B6C019264
:10BC8800029333E7013B072B3FF630AF01A252F88E
:10BC980023F000BFBDBC0700F5BA070073BD07005D
:10BCA80099BD0700F5BA0700C3BD0700F5BA07003C
:10BCB8001DBD070000F040FD08B90823D6E76269FA
:10BCC8000AB90323D2E7C2F30B0333B12A4B2E4937
:10BCD8005B6D096813448B42F3D1B2F5805F01D9DB
:10BCE8000423C3E7244B2849586D096815188D4269
:10BCF800E3D85A64DA6C9A6418651863234B1B6896
:10BD0800002201211844FFF747FE00283FF4EEAE59
:10BD18000523ABE700F010FD0028CED0164DA18A10
:10BD2800D5E914329B1A6A6C0B449342C9D8174B55
:10BD38002F6B1B68206905F148021F44FDF73AF98B
:10BD4800E368A28A216906463846FFF717FE08B15C
:10BD5800E36876E7A38A2A6BAE641A442A632A6DDD
:10BD6800029613442B650193C0E6034B9A6C02922A
:10BD78001B6DF8E7002B002000340020DBE5B151F3
:10BD8800008007004C260020F82A0020FC2A00200A
:10BD98000F4BD3E91402596C821A8A428DD19A6CDE
:10BDA8005865002120465964DA64FFF73BFE094BC9
:10BDB8001B680420984707B0F0BD054B9A6C1B6DB3
:10BDC80001934FF48053029203938FE602234DE7C9
:10BDD80000340020002B002083681BB1024A182180
:10BDE800FDF748B807207047B1BA070038B50546CF
:10BDF800C0B10020FFF7B8FD044648B900F056FC72
:10BE080000F09AFC30B9084B00201D60FFF7CCFD0C
:10BE1800204638BD0549064800F0BCFC0128F2D090
:10BE28000324F5E70724F3E7002B0020F82A002075
:10BE3800FC2A0020011F0148FDF72DB950CF07004B
:10BE480013B5074C0A4601AB01462046FDF759FBDE
:10BE58009DF8042003482146FDF7A2FE02B010BD5C
:10BE6800A32C00205426002010B5064C23783BB1A3
:10BE7800054B984204D00548FDF702FE00232370C5
:10BE8800002010BD042B002048CF070054260020B6
:10BE9800F0B5254F3B7889B0002B42D1234E306056
:10BEA8002348FDF7C1F80446002837D12048214D22
:10BEB800FDF7D1F8204BDFF8A4C01C7083220330B3
:10BEC800C3E90104DA601D4BCCF804301C4BCCE903
:10BED80002321C4BCCF810301B4BCCF814300FCD71
:10BEE8006C460FC495E80F0084E80F000B2214235A
:10BEF800CDE900231548164ACDF810C06946FDF76C
:10BF080087FB044650B9134913480122FDF796FEF2
:10BF1800336804460120387003B19847204609B0B9
:10BF2800F0BD0024FAE700BF042B0020082B0020F6
:10BF380050CF0700A0D30700F02C002049BE07000F
:10BF48003DBE0700BC2C002048CF0700502600202B
:10BF580069BF0700D42C002054260020D82C0020CC
:10BF680070B50378012B0E4602D0022B21D070BD8C
:10BF7800037AE3B1436811481978FDF7F6FA0446E5
:10BF88000F4910480122FDF759FE002CEFD10B4D47
:10BF98003046D5E9011200F0FFFE0B48FDF75BF8CB
:10BFA8000028E4D00330C5E901042C70DFE70D2434
:10BFB800E6E7BDE87040C068FDF7FCBFF02C002044
:10BFC800D42C00205426002050CF07002DE9F04142
:10BFD80015464FF46072064688461F4600F08CFFEF
:10BFE80028B915B90020BDE8F081A847FAE7002272
:10BFF80001213046FFF7D0FC70B94FF4607241461A
:10C00800384600F013FF2B464FF46072394630462D
:10C01800FFF7B4FC0028E5D00320E4E72DE9F04160
:10C02800434C236801336AD000225821201DFCF7B5
:10C03800C1FF27683A1A57425741DFF80C813D4D36
:10C04800D8F80060336801336ED000225821301DC3
:10C05800FCF7B0FF3368834253D17468012C0AD0CF
:10C068000022C32106F51870FCF7A4FFD6F85C423D
:10C07800231A5C425C41002F45D02D492D484FF4CE
:10C08800607200F0D3FE6CB1D8F800402A48542200
:10C09800211D00F0CBFE294840F2C72204F15C01C3
:10C0A80000F0C4FE6B68012B3CD1254A02F2C7148C
:10C0B80002F14006134603CBB342206061601A4682
:10C0C80004F10804F6D11F4B03F2C71203F1180656
:10C0D8001C4603CCB44210605160234602F10802AA
:10C0E800F6D120681060002385F86032012285F8B7
:10C0F800E232EB6985F8A122C5F8A23210E00027E8
:10C108009BE70024B7E72CB1D8F8001009484FF492
:10C118006072C5E707484FF46072002100F0BCFE6A
:10C1280002236B60BDE8F081002FF3D00024A4E760
:10C1380000F0070000340020043400205C340020A4
:10C148005C3500209C3500205C26002070B50C4C26
:10C15800054600225821201DFCF72CFF00222060F4
:10C16800C32104F51870FCF725FF2A46C4F85C02C1
:10C178002146044B0448BDE87040FFF727BF00BFC5
:10C18800003400208030002000F0070002460248FA
:10C19800024B0068FFF71ABF5C260020002D002024
:10C1A8000149FFF7F3BF00BF00F0070038B50546A7
:10C1B8000020FFF7CBFF044618B903492846FFF7CC
:10C1C800E5FF204638BD00BF0034002010B5FFF75A
:10C1D800CBFB044628B9FFF721FF2046FFF7E6FF0F
:10C1E80000B1032010BD00207047000010B5084CB6
:10C1F8004FF40072FF2104F15C0000F04DFE202294
:10C20800002104F1380000F047FE0023236310BD2D
:10C2180000340020F8B5094F094CE41B0646E40831
:10C228000025A54201D10020F8BD57F83530304629
:10C2380098470028F8D10135F3E700BF48CF070039
:10C2480050CF0700F8B5094E094CA41B0746E4086F
:10C2580000250436A54201D10020F8BD56F8353036
:10C26800384698470028F8D10135F3E748CF07004A
:10C2780050CF0700034A00230360436083601363C1
:10C28800704700BF0034002008B54FF440535A6887
:10C298000C4B9A4214D10C490023042243F20400A7
:10C2A800FFF76CFB60B9094A136A4FF44051012B40
:10C2B80008BF1062936989680B44A3F580539361A2
:10C2C80008BD00BFDBE5B151C0D307000034002032
:10C2D8004FF44053074A5968914201BF986800F6E5
:10C2E800FF7020F47F6020F00F0018BF4FF48050DB
:10C2F800704700BFDBE5B15108B5FFF7E9FF054B13
:10C308009B69184400F6FF7020F47F6020F00F004E
:10C3180008BD00BF00340020FFF7DABF4FF480509B
:10C32800704700002DE9F74F1F46274BDFF8A0B0F4
:10C338001B6ADFF8A09001910446154600934FF060
:10C3480000084FF4405AB8F1010F5FFA88F61AD086
:10C35800022E24D0FFF7D0FF9DB1009B013B59422C
:10C368005941A9EB0000A04201D3019BEBB1D1B91F
:10C3780008F10108B8F1030FE5D1A04217D2042053
:10C388001EE02946EDE7FFF7A3FF37B9DAF80410F6
:10C39800B1EB0B0118BF0121E3E74146E1E70121B9
:10C3A8004FF48050DDE7A042E9D3022E05D1FFF714
:10C3B8006BFF0648FFF75EFF01E0002EF9D1002071
:10C3C80003B0BDE8F08F00BF00340020183400200F
:10C3D800DBE5B1510050070090F8552012F0FB0F33
:10C3E80007D190F8643023B1836ECBB10B60012084
:10C3F800704712F0010303D090F8563003B1836DF3
:10C408009207F2D590F85C20002AEED0054A006E1B
:10C41800C2F5FC22904201D80344E6E704207047A5
:10C428000F207047008007002DE9FF472F49304D46
:10C438008A6B304C304FDFF8D490DFF8D4A06E46CA
:10C448005C313046FCF7C8F996E80F0085E80F0024
:10C4580000212A4B39704FF447722046C9F8001062
:10C46800CAF80010EB6000F017FD2549224628465F
:10C47800FCF74FFC20B90027384604B0BDE8F08728
:10C488003F78002FF7D094F86C3194F800801BB3F4
:10C49800B8F1000FEFD194F87231002BEBD0DAF835
:10C4A8000020D9F800103046FCF796F996E80F00FE
:10C4B80085E80F004FF4B272414604F5BA7000F0F7
:10C4C800EBFC104904F5BA722846FCF722FC002858
:10C4D800D1D004F5BA7406E0B8F1000FCBD0A37937
:10C4E800002BC8D00834084B1C60C5E70034002076
:10C4F800CC3A0020B0370020AC3700201DC507001B
:10C5080030D307007CD20700883B0020A8370020E2
:10C51800A43700205B68DA680D4B9A4230B50AD11F
:10C52800D0E901320B48016811B90B490C681CB1FC
:10C538000A4B00221A7030BD1A4413F9015B002D12
:10C54800A2EB0304F9DB03600C60044B0122F1E762
:10C558007CD20700A8370020A4370020AC37002081
:10C5680000B591B0FDF7AAFC684608492022FDF7FE
:10C57800D8FC6A46064907484023FDF7F7FB064BF7
:10C5880001221A7011B05DF804FB00BFD8D0070073
:10C59800DC3A00207CCF070080370020F0B5A3B03C
:10C5A80007460C4615461E4678222023002104A87B
:10C5B800029300F071FC002303931C4B1B780BB90A
:10C5C800FFF7CEFF5CB367BB02AB0193184B009338
:10C5D8001849289B324604A8FDF756FC18BB402D85
:10C5E80021D1154B214604F140021C4651F8040B99
:10C5F80043F8040B9142F9D10F482021FDF79DFC27
:10C608004023CDE900430A4A029B0C4903A8FDF7E1
:10C61800C9FB00280CBF0120052023B0F0BD132062
:10C62800FBE71620F9E70A20F7E700BF803700206C
:10C63800243B0020C8D10700443B0020DC3A0020FE
:10C64800F0B5ABB004460D4616461F4678222023A7
:10C6580000210CA8039300F01FFC114B1B780BB9A9
:10C66800FFF77EFF2FB12146202204A8FDF74EFCDC
:10C6780004AC03AB0B4F01930B49009733462A4692
:10C688000CA8FDF701FC48B920222146384600F0E5
:10C6980033FCB0FA80F040092BB0F0BD0020FBE776
:10C6A8008037002081370020C8D1070008B5044B27
:10C6B800986B08B1FFF7B8FE024B187008BD00BFB1
:10C6C80000340020843B002010B5044658B1B0F572
:10C6D800007F0AD8064B00221A70FFF787FD054B2A
:10C6E80001209C6310BD0320FCE70420FAE700BF8B
:10C6F800843B00200034002070B50E4C0646E06BE9
:10C70800A36B42189A420D4611D85C300A46204461
:10C71800314600F08BFBE36B04F140022B442946C1
:10C728003046E363FCF746FC2064012070BD03201B
:10C73800FCE700BF00340020014B1878704700BFA9
:10C74800843B002013B5104C94F86C21B2B194F8D6
:10C75800D802B4F8DA2204F5377104F5B8740B4B33
:10C768001B6800930A4B1B68FFF718FF012809D1C3
:10C77800201D02B0BDE8104000F00CBA114610466A
:10C788000434ECE702B010BDB0370020A437002015
:10C79800A8370020234BD3E90E329A422DE9F04105
:10C7A80006460D463AD1DFF8848098F800704FB1FC
:10C7B800FFF7A2FD1C4B306029461868BDE8F04120
:10C7C800FFF70ABEFFF730FE50B3FFF7BBFF0128A3
:10C7D800376004462F601ED1134B1F682946384620
:10C7E800FFF7FAFD0128044615D13B8A28681BB1DA
:10C7F8007B69003B18BF012300221146FFF792FD19
:10C8080040B9FFF779FD0123306088F800302046F1
:10C81800BDE8F0810424FFF7E9FCF8E70824F6E70F
:10C828000524F4E700340020883B0020843B0020E6
:10C8380001237230FFF704BF13B504460846237876
:10C848001146032B03D8DFE803F021050F18002059
:10C8580002B010BD0022D4F80140FCF7ABFB8442C3
:10C8680014BF00200120F3E70A4600230146601C9C
:10C8780002B0BDE81040FFF7E3BE00910346402236
:10C88800611C0020FFF78AFE0128E9E70120DFE7A5
:10C898002DE9F043A3B005460E4614460021782240
:10C8A8001F4604A820239DF8AC800393DDF8A890C8
:10C8B80000F0F2FA41220021284600F0EDFAB6F81D
:10C8C8009430A34282BF442303FB046393F8968009
:10C8D80085F80080B8F1030F1ED8DFE808F00902D8
:10C8E800111F002249463846FCF764FBC5F80100D1
:10C8F8004A4639462846FFF79FFF23B0BDE8F08334
:10C9080003AB01936B1C00930A494B463A4604A8B3
:10C91800FDF7BAFA0028EBD00020EEE744235C4389
:10C9280033199A34B3F898203119681C00F07EFA4C
:10C93800DEE700BFC8D107002DE9F0478B4B1D6823
:10C94800A4B004460F4690460A4601462846FFF71B
:10C958006FFF002800F0038195F85560002E39D14B
:10C968004FF00109CDE9007923463246294613A83C
:10C97800FFF78EFF60B9B8F1000F00F0E9800525D8
:10C988007B48FFF777FCFFF731FC7A4B9C64E2E0C9
:10C99800B8F1000F69D0DFF8DC81412213A908F251
:10C9A800A12000F043FA2B8AC8F82C90C8F8206020
:10C9B8000BB16B690BB9FFF767FC6B68C8F80830F7
:10C9C800002239462046FCF7F5FA6A4B0125C3E9EF
:10C9D8000970D8E74122002102A800F05DFA06F0AC
:10C9E800010A4122002113A8D14600F055FABAF1F4
:10C9F800000F3ED004F5005C5F4BDCF80400AA6D24
:10CA0800984243D102F5FF5302F6FF71C1F30B01BF
:10CA18001F335B1ADCF80810994237D34FF44053A0
:10CA2800596881420ED11978102988BF196904F50F
:10CA3800005398BF0021187810288CBF1B69002369
:10CA4800994223D10123CDE9002329462346002218
:10CA580002A8FFF71DFFC8B1AA6DA318BA1A16F0ED
:10CA6800020609D1B8F1000F1FD1424B01255D61C3
:10CA780071E03A462346F2E70021CDE9002113A8E8
:10CA88004A462946FFF704FF0028EBD1B8F1000F0A
:10CA98005ED0BAF1000F3FF472AFFFF73FFCA0423F
:10CAA8007FF46DAFFFF7F0FB69E7DFF8C880B9F1F5
:10CAB800000F49D04FF440532F495A688A4225D075
:10CAC80004F500535B68581A434243418A421FD118
:10CAD80004F50051486890421AD14FF440531A782F
:10CAE800142A82BF5A69254BB2FBF3F20B7898BF20
:10CAF8000022142B83BF4B692049B3FBF1F30023B9
:10CB08009A4207D01E48FFF7B5FB03E00023DDE794
:10CB1800002BF7D11B48412202A900F087F9002E0B
:10CB280014BFAC23A523C8F82C30AB6DC8F834303B
:10CB3800002E3FF445AF1448412213A900F076F9BE
:10CB48006B68C8F80C303BE7AA23C8F82C30EFE72D
:10CB58000525FFF74BFB284624B0BDE8F0871725CD
:10CB6800B8F1000F7FF40CAFF3E700BF883B00205B
:10CB78002434002000340020DBE5B15140420F008E
:10CB88001834002060360020E23600200122FFF72A
:10CB9800D3BE000090F85420F0B50346002A5CD0BC
:10CBA80090F85500032858D893F86E20032A52D1DC
:10CBB8001A7A002A51D0DA68342A50D14FF44055F5
:10CBC80028496C681A8A8C422ED142B15969A9B198
:10CBD800D2B203F114040021CEB2B24201D812201D
:10CBE80032E054F8047BAE89B74201F10101F3D178
:10CBF8001A7802BB012818BF0F2025E088B9012A3E
:10CC0800F6D0D2B203F114044FF44056CDB2AA4282
:10CC1800E5D954F8047BB589AF4201F10101F5D19A
:10CC2800E6E70128E4D1DAE712B15A69002AD6D139
:10CC38001A78002AD3D001285B680B4A05D8906877
:10CC480098428CBF10200120F0BDD068984234BFB4
:10CC580001201020F8E71420F6E70F20F4E7112050
:10CC6800F2E700BFDBE5B15100340020030A087089
:10CC78004B70030C000EC8708B700420704770B5A1
:10CC88000378082B06460D460BD14B880A88013BD2
:10CC98009BB24B80002A7ED0002B7CD103234A8094
:10CCA80003702C6960232370337863707378A370E2
:10CCB800012B65D133780B2B6BD8DFE803F05D6A65
:10CCC8006A406A6A4A576A5D062DE11C7068FFF778
:10CCD800CDFF0330C2B254FA80F1B068FFF7C6FF47
:10CCE8001044C2B254FA80F1F068FFF7BFFF104455
:10CCF800C2B254FA80F13069FFF7B8FF1044C2B2EB
:10CD080054FA80F17069FFF7B1FF1044C1B26B6843
:10CD18002046BDE8704018473379E370211DB0689C
:10CD2800FFF7A4FF0430C2B254FA80F1F068FFF7AD
:10CD38009DFF1044C2B254FA80F13069E3E770688D
:10CD4800E11CFFF793FF0330C2B254FA80F1B068D8
:10CD5800D9E7E11CF068FFF789FF0330C2B254FA43
:10CD680080F17068FFF782FF1044EDE7B388E37045
:10CD78001B0A23710521CAE73379E3700421C6E74A
:10CD88000B2B06D1FEF716FEE0700020FEF70CFE16
:10CD9800F4E70321BBE770BDF0B50F4687B0044642
:10CDA8000D46164600211822684600F075F817F857
:10CDB800013B1D4A8DF80030013B019402920A2B79
:10CDC8000BD8DFE803F011060A0A0A0E291E2D0AFD
:10CDD8002D00B5F8013023806380A3683846984752
:10CDE80015E06B780493F8E7238863806B78D5F8AF
:10CDF80002200493012B0592EFD16069FFF722FA14
:10CE0800EBE7A3680497013EADF814600393684606
:10CE1800FEF7E2FF07B0F0BDE368ADF81030DCE7DD
:10CE28006B788DF81030D8E787CC070072B384464A
:10CE380090EA01039B0721D1830709D011F8013B30
:10CE480000F8013B013A20D08307F7D100E084467F
:10CE5800202A0AD32DE9F007B1E8F807A0E8F80777
:10CE6800203A202AF8D2BDE8F007042A06D351F860
:10CE7800043B40F8043B043A042AF8D22AB111F8DA
:10CE8800013B00F8013B013AF9D16046704700BF09
:10CE980000220B0011001A0084465AB3830704D0FD
:10CEA80000F8011B013AF9D124E0C9B241EA012195
:10CEB80041EA0141202A11D3203A2DE9F0030B461B
:10CEC8000C460D460E460F4688468946A0E8FA03EA
:10CED800203AFBD2BDE8F00320320BD0042A05D358
:10CEE80040F8041B043A05D0042AF9D200F8011BC3
:10CEF800013AFBD160467047042A08D350F804CBA6
:10CF08000B689C4506D1043A0431032AF6D8A2B12D
:10CF1800D0F800C0086880EA0C0191FAA1F1B1FAD2
:10CF280081F1B2EBD10F08D901F038012CFA01F2E6
:10CF3800C840C0B2D1B2081A70470020704700003C
:08CF480099BE070071BE07004D
:10CF50000C2B0020A02C0020A32C0020142B002040
:04CF60008400000049
:10CF6400000000000000000065B907000010000088
:04CF740000000800B1
:10CF7800040529004800280000204000C9AC07002B
:10CF8800A98807004F8807009F8D07000F8E0700AC
:10CF98002F8E07009B870700598707003B8D0700E6
:10CFA8000000000000100000040000000100000064
:10CFB8003591070059910700699107007991070099
:10CFC800CD9107004191070045910700499107005D
:10CFD800982F8A4291443771CFFBC0B5A5DBB5E9DC
:10CFE8005BC25639F111F159A4823F92D55E1CAB50
:10CFF80098AA07D8015B8312BE853124C37D0C55DE
:10D00800745DBE72FEB1DE80A706DC9B74F19BC125
:10D01800C1699BE48647BEEFC69DC10FCCA10C2415
:10D028006F2CE92DAA84744ADCA9B05CDA88F976F9
:10D0380052513E986DC631A8C82703B0C77F59BF63
:10D04800F30BE0C64791A7D55163CA06672929148F
:10D05800850AB72738211B2EFC6D2C4D130D38532C
:10D0680054730A65BB0A6A762EC9C281852C7292EE
:10D07800A1E8BFA24B661AA8708B4BC2A3516CC71C
:10D0880019E892D1240699D685350EF470A06A1055
:10D0980016C1A419086C371E4C774827B5BCB034A4
:10D0A800B30C1C394AAAD84E4FCA9C5BF36F2E6842
:10D0B800EE828F746F63A5781478C8840802C78CD1
:10D0C800FAFFBE90EB6C50A4F7A3F9BEF27871C6D4
:10D0D8002D6ADAF7FC67D9B35731CB98EDDB4757A0
:10D0E800B79FDE4A97E6E9C75E82EB85BD0921AEA8
:10D0F800B508F86E4B8FB64ABA1CD0AF18AF28697E
:10D1080094D8C6758F7FC92CDA1B33D832763BCDBD
:10D1180008200001FFFFFFFFFFFFFFFFFFFFFFFFEA
:10D1280000000000000000000000000001000000F6
:10D13800FFFFFFFF512563FCC2CAB9F3849E17A7FE
:10D14800ADFAE6BCFFFFFFFFFFFFFFFF0000000096
:10D15800FFFFFFFF96C298D84539A1F4A033EB2D05
:10D16800817D0377F240A463E5E6BCF847422CE1F1
:10D17800F2D1176BF551BF376840B6CBCE5E316B35
:10D188005733CE2B169E0F7C4AEBE78E9B7F1AFEF9
:10D19800E242E34F4B60D2273E3CCE3BF6B053CC45
:10D1A800B0061D65BC86987655BDEBB3E7933AAAE1
:10D1B800D835C65A95A60700EBA7070045A807006B
:10D1C800DBAF0700D5AF0700B5AF070020000000B0
:10D1D80078000000000000000338FDD87047000008
:10D1E8000100000001000100000000000100000033
:10D1F80000000000020005000100000042000000DD
:10D208000000000000000000000000000000000016
:10D2180000000000010011000100FFFF01000000F4
:10D2280000000000020017000200FEFF6401000079
:10D238007CD2070000000000000000000000000091
:10D2480000000000010001000000000001000000D3
:10D25800000000000200050001000000220000009C
:10D2680000000000000000000000000000000000B6
:10D2780000000000010011000400FCFF0400000091
:10D2880000000000020011000400FCFF0400000080
:10D2980000000000030021000400FCFF040010004F
:10D2A80000000000040011000100FFFF0100000061
:10D2B80000000000050011000200FEFF040000004D
:10D2C80000000000060011000400FCFF040000003C
:10D2D80000000000070011000400FCFF040000002B
:10D2E80000000000080017000200FEFF24000000F4
:10D2F8004CD20700090010000100FFFF01000000E8
:10D308002CD307000A0027000200FEFF4400030098
:10D31800ECD1070000000000000000000000000041
:10D328000000000000000000010017000400FCFFDE
:10D33800680100001CD20700020017000400FCFF6F
:10D34800AC01000060D307000000000000000000EE
:10D3580000000000000000000100070000000000BD
:10D36800680100001CD20700020001000000000054
:10D37800010000000000000003000500010000009B
:10D388004200000000000000000000000000000053
:10D398000000000000000000FFFFFFFFFFFFFFFF8D
:10D3A800FFFFFFFFFFFFFFFF00000000000000007D
:0CD3B8000000D60106000000000000008C
:10D3C4000000000000000000000000000000000059
:10D3D4000000000000000000000000000100000048
:10D3E40020260020302600200090D00301000000F9
:10D3F40000000000002000400000000000E00700E2
:020000020000FC
:020000041000EA
:041014000080070051
:0410180000E00700ED
:0400000370008345C1
:00000001FF
